{
  "contractName": "Dice",
  "abi": [
    {
      "inputs": [],
      "stateMutability": "nonpayable",
      "type": "constructor"
    },
    {
      "inputs": [
        {
          "internalType": "uint256",
          "name": "num",
          "type": "uint256"
        }
      ],
      "name": "changeRandomFactor",
      "outputs": [],
      "stateMutability": "nonpayable",
      "type": "function"
    },
    {
      "inputs": [],
      "name": "random",
      "outputs": [
        {
          "internalType": "uint8",
          "name": "",
          "type": "uint8"
        }
      ],
      "stateMutability": "view",
      "type": "function"
    },
    {
      "inputs": [
        {
          "internalType": "uint8",
          "name": "a",
          "type": "uint8"
        },
        {
          "internalType": "uint8",
          "name": "b",
          "type": "uint8"
        }
      ],
      "name": "min",
      "outputs": [
        {
          "internalType": "uint8",
          "name": "",
          "type": "uint8"
        }
      ],
      "stateMutability": "pure",
      "type": "function"
    },
    {
      "inputs": [
        {
          "internalType": "uint8",
          "name": "a",
          "type": "uint8"
        },
        {
          "internalType": "uint8",
          "name": "b",
          "type": "uint8"
        }
      ],
      "name": "max",
      "outputs": [
        {
          "internalType": "uint8",
          "name": "",
          "type": "uint8"
        }
      ],
      "stateMutability": "pure",
      "type": "function"
    }
  ],
  "bytecode": "0x6080806040523461001b57600a60005561025f90816100218239f35b600080fdfe608080604052600436101561001357600080fd5b6000803560e01c918263100219ef1461006e57505080635ec01e4d1461006557806363d641591461005c5763dbde2f191461004f575b38600080fd5b6100576101a8565b610049565b50610057610170565b506100576100a9565b346100a55760203660031901126100a55760043582548119811161009157018255f35b634e487b7160e01b84526011600452602484fd5b5080fd5b503461014b57600080600319360112610148578054906040519060208201924284523360601b6040840152605483015260548252608082019082821067ffffffffffffffff8311176101345761013061011c6101166101118787876040525190206006900690565b6101d5565b60ff1690565b60405160ff90911681529081906020820190565b0390f35b634e487b7160e01b81526041600452602490fd5b80fd5b600080fd5b6004359060ff8216820361014b57565b6024359060ff8216820361014b57565b503461014b57604036600319011261014b57602061019d61018f610150565b610197610160565b90610214565b60ff60405191168152f35b503461014b57604036600319011261014b57602061019d6101c7610150565b6101cf610160565b906101fa565b60011981116101e45760010190565b634e487b7160e01b600052601160045260246000fd5b9060ff811660ff83161060001461020f575090565b905090565b9060ff811660ff83161160001461020f57509056fea26469706673582212209ef388673ccb44fbcfb1f69d79eace5d9ca755fcfa7e6c84568b148b3cbe403664736f6c634300080d0033",
  "immutableReferences": {},
  "source": "pragma solidity >=0.4.22 <0.9.0;\r\n\r\ncontract Dice {\r\n\r\n    uint256 private randomFactor;\r\n\r\n    constructor(){\r\n        randomFactor = 10;\r\n    }\r\n\r\n    function changeRandomFactor(uint256 num)public {\r\n       randomFactor += num;\r\n    }\r\n\r\n    function random() public view returns (uint8) {\r\n\r\n        bytes32 combinedHash = keccak256(abi.encodePacked(block.timestamp, msg.sender, uint256(randomFactor)));\r\n\r\n        return uint8(uint(combinedHash) % 6 + 1);\r\n\r\n    }\r\n\r\n    function min(uint8 a, uint8 b) public pure returns (uint8) {\r\n        if (a < b) {\r\n            return a;\r\n        } else {\r\n            return b;\r\n        }\r\n    }\r\n\r\n    function max(uint8 a, uint8 b) public pure returns (uint8) {\r\n        if (a > b) {\r\n            return a;\r\n        } else {\r\n            return b;\r\n        }\r\n    }\r\n}",
  "sourcePath": "C:\\coin-meta\\backend\\contracts\\Dice.sol",
  "compiler": {
    "name": "solc",
    "version": "0.8.13+commit.abaa5c0e.Emscripten.clang"
  },
  "schemaVersion": "3.4.13",
  "updatedAt": "2023-06-02T09:35:23.627Z",
  "devdoc": {
    "kind": "dev",
    "methods": {},
    "version": 1
  },
  "userdoc": {
    "kind": "user",
    "methods": {},
    "version": 1
  }
}