{
  "contractName": "DiceCommon",
  "abi": [
    {
      "inputs": [
        {
          "internalType": "uint256",
          "name": "num",
          "type": "uint256"
        }
      ],
      "name": "changeRandomFactor",
      "outputs": [],
      "stateMutability": "nonpayable",
      "type": "function"
    },
    {
      "inputs": [
        {
          "internalType": "uint8",
          "name": "a",
          "type": "uint8"
        },
        {
          "internalType": "uint8",
          "name": "b",
          "type": "uint8"
        }
      ],
      "name": "max",
      "outputs": [
        {
          "internalType": "uint8",
          "name": "",
          "type": "uint8"
        }
      ],
      "stateMutability": "pure",
      "type": "function"
    },
    {
      "inputs": [
        {
          "internalType": "uint8",
          "name": "a",
          "type": "uint8"
        },
        {
          "internalType": "uint8",
          "name": "b",
          "type": "uint8"
        }
      ],
      "name": "min",
      "outputs": [
        {
          "internalType": "uint8",
          "name": "",
          "type": "uint8"
        }
      ],
      "stateMutability": "pure",
      "type": "function"
    },
    {
      "inputs": [],
      "name": "random",
      "outputs": [
        {
          "internalType": "uint8",
          "name": "",
          "type": "uint8"
        }
      ],
      "stateMutability": "view",
      "type": "function"
    },
    {
      "inputs": [
        {
          "internalType": "uint8",
          "name": "bet",
          "type": "uint8"
        }
      ],
      "name": "roll",
      "outputs": [
        {
          "internalType": "uint8",
          "name": "",
          "type": "uint8"
        }
      ],
      "stateMutability": "nonpayable",
      "type": "function"
    }
  ],
  "bytecode": "0x6080806040523461001b57600a60005561028c90816100218239f35b600080fdfe60806040526004361015610013575b600080fd5b6000803560e01c908163100219ef1461007a575080635ec01e4d1461007157806363d64159146100685780636bf0f4a11461005f5763dbde2f191461005757600080fd5b61000e61016d565b5061000e610116565b5061000e6100e9565b5061000e6100a2565b3461009f57602036600319011261009f57610098600435825461019a565b8155604051f35b80fd5b503461000e57600036600319011261000e5760206100be6101bc565b60ff60405191168152f35b6004359060ff8216820361000e57565b6024359060ff8216820361000e57565b503461000e57604036600319011261000e5760206100be6101086100c9565b6101106100d9565b90610241565b503461000e57602036600319011261000e576101306100c9565b50602061014960ff6101406101bc565b1660005461019a565b8060005561016260ff61015a6101bc565b16809261019a565b600055604051908152f35b503461000e57604036600319011261000e5760206100be61018c6100c9565b6101946100d9565b90610227565b811981116101a6570190565b634e487b7160e01b600052601160045260246000fd5b6000546040519060208201904282523360601b6040840152605483015260548252608082019180831067ffffffffffffffff841117610211576006926040525190200660011981116101a65760010160ff1690565b634e487b7160e01b600052604160045260246000fd5b9060ff811660ff83161060001461023c575090565b905090565b9060ff811660ff83161160001461023c57509056fea2646970667358221220c4c14dff7127c764ef61e4225882684049069acadae59d94c5c911d78c4dc95064736f6c634300080d0033",
  "immutableReferences": {},
  "source": "pragma solidity >=0.4.22 <0.9.0;\r\n\r\nimport \"./Dice.sol\";\r\nimport \"./interface/DiceInterface.sol\";\r\n\r\ncontract DiceCommon is Dice, DiceInterface {\r\n\r\n    function roll(uint8 bet) public  returns (uint8){\r\n        uint8 result;\r\n        uint8 tmp;\r\n\r\n        tmp = random();\r\n\r\n        changeRandomFactor(uint256(tmp));\r\n\r\n        result = random();\r\n\r\n        changeRandomFactor(uint256(result));\r\n\r\n        return result;\r\n    }\r\n}",
  "sourcePath": "C:\\coin-meta\\backend\\contracts\\DiceCommon.sol",
  "compiler": {
    "name": "solc",
    "version": "0.8.13+commit.abaa5c0e.Emscripten.clang"
  },
  "schemaVersion": "3.4.13",
  "updatedAt": "2023-06-02T09:35:23.630Z",
  "devdoc": {
    "kind": "dev",
    "methods": {},
    "version": 1
  },
  "userdoc": {
    "kind": "user",
    "methods": {},
    "version": 1
  }
}