{
  "contractName": "DiceSpec",
  "abi": [
    {
      "inputs": [
        {
          "internalType": "uint256",
          "name": "num",
          "type": "uint256"
        }
      ],
      "name": "changeRandomFactor",
      "outputs": [],
      "stateMutability": "nonpayable",
      "type": "function"
    },
    {
      "inputs": [
        {
          "internalType": "uint8",
          "name": "a",
          "type": "uint8"
        },
        {
          "internalType": "uint8",
          "name": "b",
          "type": "uint8"
        }
      ],
      "name": "max",
      "outputs": [
        {
          "internalType": "uint8",
          "name": "",
          "type": "uint8"
        }
      ],
      "stateMutability": "pure",
      "type": "function"
    },
    {
      "inputs": [
        {
          "internalType": "uint8",
          "name": "a",
          "type": "uint8"
        },
        {
          "internalType": "uint8",
          "name": "b",
          "type": "uint8"
        }
      ],
      "name": "min",
      "outputs": [
        {
          "internalType": "uint8",
          "name": "",
          "type": "uint8"
        }
      ],
      "stateMutability": "pure",
      "type": "function"
    },
    {
      "inputs": [],
      "name": "random",
      "outputs": [
        {
          "internalType": "uint8",
          "name": "",
          "type": "uint8"
        }
      ],
      "stateMutability": "view",
      "type": "function"
    },
    {
      "inputs": [
        {
          "internalType": "uint8",
          "name": "bet",
          "type": "uint8"
        }
      ],
      "name": "roll",
      "outputs": [
        {
          "internalType": "uint8",
          "name": "",
          "type": "uint8"
        }
      ],
      "stateMutability": "nonpayable",
      "type": "function"
    }
  ],
  "bytecode": "0x6080806040523461001b57600a60005561032090816100218239f35b600080fdfe60806040526004361015610013575b600080fd5b6000803560e01c908163100219ef1461007a575080635ec01e4d1461007157806363d64159146100685780636bf0f4a11461005f5763dbde2f191461005757600080fd5b61000e6101c1565b5061000e610116565b5061000e6100e9565b5061000e6100a2565b3461009f57602036600319011261009f5761009860043582546101ee565b8155604051f35b80fd5b503461000e57600036600319011261000e5760206100be610210565b60ff60405191168152f35b6004359060ff8216820361000e57565b6024359060ff8216820361000e57565b503461000e57604036600319011261000e5760206100be6101086100c9565b6101106100d9565b90610295565b503461000e57602036600319011261000e576101306100c9565b60ff6000911660028110156101ad5760010361016a57506101666101526102aa565b60405160ff90911681529081906020820190565b0390f35b6101a861016691610179610210565b61018760ff821683546101ee565b918281556101a1610196610210565b9360ff8516906101ee565b9055610295565b610152565b634e487b7160e01b82526021600452602482fd5b503461000e57604036600319011261000e5760206100be6101e06100c9565b6101e86100d9565b9061027b565b811981116101fa570190565b634e487b7160e01b600052601160045260246000fd5b6000546040519060208201904282523360601b6040840152605483015260548252608082019180831067ffffffffffffffff841117610265576006926040525190200660011981116101fa5760010160ff1690565b634e487b7160e01b600052604160045260246000fd5b9060ff811660ff831610600014610290575090565b905090565b9060ff811660ff831611600014610290575090565b6102e76102b5610210565b6102c460ff82166000546101ee565b90816000556102df6102d4610210565b9260ff8416906101ee565b60005561027b565b9056fea264697066735822122061e9ccaac70c88e29d408d8f561be8522e3176c91f619ad44f9d2130921e02d364736f6c634300080d0033",
  "immutableReferences": {},
  "source": "pragma solidity >=0.4.22 <0.9.0;\r\n\r\nimport \"./Dice.sol\";\r\nimport \"./interface/DiceInterface.sol\";\r\n\r\ncontract DiceSpec is Dice, DiceInterface{\r\n\r\n    function roll(uint8 bet) public returns (uint8){\r\n\r\n        uint8 result;\r\n\r\n        if(Bet(bet) == Bet.Hi){\r\n            result = chooseMin();\r\n        }else {\r\n            result = chooseMax();\r\n        }\r\n\r\n        return result;\r\n    }\r\n\r\n    function chooseMin ()private returns(uint8){\r\n\r\n        uint8 roll1 = random();\r\n        changeRandomFactor(uint256(roll1));\r\n\r\n        uint8 roll2 = random();\r\n        changeRandomFactor(uint256(roll2));\r\n\r\n        return min(roll1, roll2);\r\n    }\r\n\r\n    function chooseMax ()private returns(uint8){\r\n\r\n        uint8 roll1 = random();\r\n\r\n        changeRandomFactor(uint256(roll1));\r\n\r\n        uint8 roll2 = random();\r\n\r\n        changeRandomFactor(uint256(roll2));\r\n\r\n        return max(roll1, roll2);\r\n    }\r\n\r\n}",
  "sourcePath": "C:\\coin-meta\\backend\\contracts\\DiceSpec.sol",
  "compiler": {
    "name": "solc",
    "version": "0.8.13+commit.abaa5c0e.Emscripten.clang"
  },
  "schemaVersion": "3.4.13",
  "updatedAt": "2023-06-02T09:35:23.633Z",
  "devdoc": {
    "kind": "dev",
    "methods": {},
    "version": 1
  },
  "userdoc": {
    "kind": "user",
    "methods": {},
    "version": 1
  }
}