{
  "contractName": "Factory",
  "abi": [
    {
      "inputs": [
        {
          "internalType": "uint256",
          "name": "wager",
          "type": "uint256"
        }
      ],
      "name": "build",
      "outputs": [
        {
          "internalType": "contract DiceInterface",
          "name": "",
          "type": "address"
        }
      ],
      "stateMutability": "nonpayable",
      "type": "function"
    }
  ],
  "bytecode": "0x6080806040523461001657610762908161001c8239f35b600080fdfe608080604052600436101561001357600080fd5b600090813560e01c6377fc2b191461002b5750600080fd5b34610116576020366003190112610116576100a5919067016345785d8a0000600435106100c35750604051806103418082019082821067ffffffffffffffff8311176100b6575b6103ec83390391f080156100a9575b6001600160a01b03165b6040516001600160a01b0390911681529081906020820190565b0390f35b6100b1610131565b610081565b6100be61011a565b610072565b806102ad8082019082821067ffffffffffffffff831117610109575b61013f83390391f080156100fc575b6001600160a01b031661008b565b610104610131565b6100ee565b61011161011a565b6100df565b5080fd5b50634e487b7160e01b600052604160045260246000fd5b506040513d6000823e3d90fdfe6080806040523461001b57600a60005561028c90816100218239f35b600080fdfe60806040526004361015610013575b600080fd5b6000803560e01c908163100219ef1461007a575080635ec01e4d1461007157806363d64159146100685780636bf0f4a11461005f5763dbde2f191461005757600080fd5b61000e61016d565b5061000e610116565b5061000e6100e9565b5061000e6100a2565b3461009f57602036600319011261009f57610098600435825461019a565b8155604051f35b80fd5b503461000e57600036600319011261000e5760206100be6101bc565b60ff60405191168152f35b6004359060ff8216820361000e57565b6024359060ff8216820361000e57565b503461000e57604036600319011261000e5760206100be6101086100c9565b6101106100d9565b90610241565b503461000e57602036600319011261000e576101306100c9565b50602061014960ff6101406101bc565b1660005461019a565b8060005561016260ff61015a6101bc565b16809261019a565b600055604051908152f35b503461000e57604036600319011261000e5760206100be61018c6100c9565b6101946100d9565b90610227565b811981116101a6570190565b634e487b7160e01b600052601160045260246000fd5b6000546040519060208201904282523360601b6040840152605483015260548252608082019180831067ffffffffffffffff841117610211576006926040525190200660011981116101a65760010160ff1690565b634e487b7160e01b600052604160045260246000fd5b9060ff811660ff83161060001461023c575090565b905090565b9060ff811660ff83161160001461023c57509056fea2646970667358221220c4c14dff7127c764ef61e4225882684049069acadae59d94c5c911d78c4dc95064736f6c634300080d00336080806040523461001b57600a60005561032090816100218239f35b600080fdfe60806040526004361015610013575b600080fd5b6000803560e01c908163100219ef1461007a575080635ec01e4d1461007157806363d64159146100685780636bf0f4a11461005f5763dbde2f191461005757600080fd5b61000e6101c1565b5061000e610116565b5061000e6100e9565b5061000e6100a2565b3461009f57602036600319011261009f5761009860043582546101ee565b8155604051f35b80fd5b503461000e57600036600319011261000e5760206100be610210565b60ff60405191168152f35b6004359060ff8216820361000e57565b6024359060ff8216820361000e57565b503461000e57604036600319011261000e5760206100be6101086100c9565b6101106100d9565b90610295565b503461000e57602036600319011261000e576101306100c9565b60ff6000911660028110156101ad5760010361016a57506101666101526102aa565b60405160ff90911681529081906020820190565b0390f35b6101a861016691610179610210565b61018760ff821683546101ee565b918281556101a1610196610210565b9360ff8516906101ee565b9055610295565b610152565b634e487b7160e01b82526021600452602482fd5b503461000e57604036600319011261000e5760206100be6101e06100c9565b6101e86100d9565b9061027b565b811981116101fa570190565b634e487b7160e01b600052601160045260246000fd5b6000546040519060208201904282523360601b6040840152605483015260548252608082019180831067ffffffffffffffff841117610265576006926040525190200660011981116101fa5760010160ff1690565b634e487b7160e01b600052604160045260246000fd5b9060ff811660ff831610600014610290575090565b905090565b9060ff811660ff831611600014610290575090565b6102e76102b5610210565b6102c460ff82166000546101ee565b90816000556102df6102d4610210565b9260ff8416906101ee565b60005561027b565b9056fea264697066735822122061e9ccaac70c88e29d408d8f561be8522e3176c91f619ad44f9d2130921e02d364736f6c634300080d0033a264697066735822122029591b618febe6a8101754ab9ae1dad343d5746ec05f3e52c951346caf29942c64736f6c634300080d0033",
  "immutableReferences": {},
  "source": "pragma solidity ^0.8.0;\r\n\r\nimport \"./interface/DiceInterface.sol\";\r\nimport \"./DiceCommon.sol\";\r\nimport \"./DiceSpec.sol\";\r\n\r\ncontract Factory {\r\n\r\n    function build(uint256 wager) public returns (DiceInterface){\r\n\r\n        DiceInterface dice;\r\n\r\n        if(wager >= 100000000000000000){\r\n\r\n            dice = new DiceSpec();\r\n        }else {\r\n            dice = new DiceCommon();\r\n        }\r\n\r\n        return dice;\r\n    }\r\n\r\n\r\n}",
  "sourcePath": "C:\\coin-meta\\backend\\contracts\\Factory.sol",
  "compiler": {
    "name": "solc",
    "version": "0.8.13+commit.abaa5c0e.Emscripten.clang"
  },
  "schemaVersion": "3.4.13",
  "updatedAt": "2023-06-02T09:35:23.639Z",
  "devdoc": {
    "kind": "dev",
    "methods": {},
    "version": 1
  },
  "userdoc": {
    "kind": "user",
    "methods": {},
    "version": 1
  }
}